{
  "contractName": "Project",
  "abi": [
    {
      "inputs": [
        {
          "internalType": "string",
          "name": "_title",
          "type": "string"
        },
        {
          "internalType": "string",
          "name": "_descr",
          "type": "string"
        },
        {
          "internalType": "uint256",
          "name": "_amountToRaise",
          "type": "uint256"
        },
        {
          "internalType": "uint256",
          "name": "_deadline",
          "type": "uint256"
        },
        {
          "internalType": "address payable",
          "name": "_creator",
          "type": "address"
        }
      ],
      "stateMutability": "nonpayable",
      "type": "constructor"
    },
    {
      "anonymous": false,
      "inputs": [
        {
          "indexed": false,
          "internalType": "address",
          "name": "sender",
          "type": "address"
        },
        {
          "indexed": false,
          "internalType": "uint256",
          "name": "amount",
          "type": "uint256"
        },
        {
          "indexed": false,
          "internalType": "uint256",
          "name": "currentBalance",
          "type": "uint256"
        }
      ],
      "name": "NewFunding",
      "type": "event"
    },
    {
      "anonymous": false,
      "inputs": [
        {
          "indexed": false,
          "internalType": "address",
          "name": "creator",
          "type": "address"
        },
        {
          "indexed": false,
          "internalType": "uint256",
          "name": "currentBalance",
          "type": "uint256"
        }
      ],
      "name": "ProjectPayedOut",
      "type": "event"
    },
    {
      "inputs": [
        {
          "internalType": "address",
          "name": "",
          "type": "address"
        }
      ],
      "name": "fundings",
      "outputs": [
        {
          "internalType": "uint256",
          "name": "",
          "type": "uint256"
        }
      ],
      "stateMutability": "view",
      "type": "function"
    },
    {
      "inputs": [],
      "name": "fund",
      "outputs": [],
      "stateMutability": "payable",
      "type": "function"
    },
    {
      "inputs": [],
      "name": "payOut",
      "outputs": [],
      "stateMutability": "nonpayable",
      "type": "function"
    },
    {
      "inputs": [],
      "name": "refund",
      "outputs": [],
      "stateMutability": "nonpayable",
      "type": "function"
    },
    {
      "inputs": [],
      "name": "checkIfProjectEnded",
      "outputs": [
        {
          "internalType": "bool",
          "name": "",
          "type": "bool"
        }
      ],
      "stateMutability": "nonpayable",
      "type": "function"
    },
    {
      "inputs": [],
      "name": "viewTotalContributions",
      "outputs": [
        {
          "internalType": "uint256",
          "name": "_currentBalance",
          "type": "uint256"
        }
      ],
      "stateMutability": "view",
      "type": "function"
    },
    {
      "inputs": [],
      "name": "viewProject",
      "outputs": [
        {
          "internalType": "string",
          "name": "_title",
          "type": "string"
        },
        {
          "internalType": "string",
          "name": "_descr",
          "type": "string"
        },
        {
          "internalType": "address",
          "name": "_creator",
          "type": "address"
        },
        {
          "internalType": "enum Project.ProjectState",
          "name": "_state",
          "type": "uint8"
        },
        {
          "internalType": "uint256",
          "name": "_amountToRaise",
          "type": "uint256"
        },
        {
          "internalType": "uint256",
          "name": "_currentBalance",
          "type": "uint256"
        },
        {
          "internalType": "uint256",
          "name": "_deadline",
          "type": "uint256"
        },
        {
          "internalType": "uint256",
          "name": "_completedAt",
          "type": "uint256"
        },
        {
          "internalType": "uint256",
          "name": "_completedBalance",
          "type": "uint256"
        }
      ],
      "stateMutability": "view",
      "type": "function"
    }
  ],
  "bytecode": "0x60806040523480156200001157600080fd5b5060405162001caf38038062001caf8339818101604052810190620000379190620003e6565b84600090805190602001906200004f929190620000f9565b50836001908051906020019062000068929190620000f9565b50826003819055506000600481905550816005819055506000600260146101000a81548160ff02191690836004811115620000a857620000a7620004ac565b5b021790555080600260006101000a81548173ffffffffffffffffffffffffffffffffffffffff021916908373ffffffffffffffffffffffffffffffffffffffff160217905550505050505062000540565b82805462000107906200050a565b90600052602060002090601f0160209004810192826200012b576000855562000177565b82601f106200014657805160ff191683800117855562000177565b8280016001018555821562000177579182015b828111156200017657825182559160200191906001019062000159565b5b5090506200018691906200018a565b5090565b5b80821115620001a55760008160009055506001016200018b565b5090565b6000604051905090565b600080fd5b600080fd5b600080fd5b600080fd5b6000601f19601f8301169050919050565b7f4e487b7100000000000000000000000000000000000000000000000000000000600052604160045260246000fd5b6200021282620001c7565b810181811067ffffffffffffffff82111715620002345762000233620001d8565b5b80604052505050565b600062000249620001a9565b905062000257828262000207565b919050565b600067ffffffffffffffff8211156200027a5762000279620001d8565b5b6200028582620001c7565b9050602081019050919050565b60005b83811015620002b257808201518184015260208101905062000295565b83811115620002c2576000848401525b50505050565b6000620002df620002d9846200025c565b6200023d565b905082815260208101848484011115620002fe57620002fd620001c2565b5b6200030b84828562000292565b509392505050565b600082601f8301126200032b576200032a620001bd565b5b81516200033d848260208601620002c8565b91505092915050565b6000819050919050565b6200035b8162000346565b81146200036757600080fd5b50565b6000815190506200037b8162000350565b92915050565b600073ffffffffffffffffffffffffffffffffffffffff82169050919050565b6000620003ae8262000381565b9050919050565b620003c081620003a1565b8114620003cc57600080fd5b50565b600081519050620003e081620003b5565b92915050565b600080600080600060a08688031215620004055762000404620001b3565b5b600086015167ffffffffffffffff811115620004265762000425620001b8565b5b620004348882890162000313565b955050602086015167ffffffffffffffff811115620004585762000457620001b8565b5b620004668882890162000313565b945050604062000479888289016200036a565b93505060606200048c888289016200036a565b92505060806200049f88828901620003cf565b9150509295509295909350565b7f4e487b7100000000000000000000000000000000000000000000000000000000600052602160045260246000fd5b7f4e487b7100000000000000000000000000000000000000000000000000000000600052602260045260246000fd5b600060028204905060018216806200052357607f821691505b602082108114156200053a5762000539620004db565b5b50919050565b61175f80620005506000396000f3fe6080604052600436106100705760003560e01c8063b60d42881161004e578063b60d4288146100e2578063c2052403146100ec578063ca3c23c114610103578063f00b03d21461013657610070565b8063590e1ae31461007557806389598eac1461008c578063aab8ca9c146100b7575b600080fd5b34801561008157600080fd5b5061008a610173565b005b34801561009857600080fd5b506100a1610479565b6040516100ae9190610cd1565b60405180910390f35b3480156100c357600080fd5b506100cc610567565b6040516100d99190610d05565b60405180910390f35b6100ea6105f6565b005b3480156100f857600080fd5b506101016107f1565b005b34801561010f57600080fd5b50610118610aed565b60405161012d99989796959493929190610e71565b60405180910390f35b34801561014257600080fd5b5061015d60048036038101906101589190610f3d565b610c6f565b60405161016a9190610d05565b60405180910390f35b600260009054906101000a900473ffffffffffffffffffffffffffffffffffffffff1673ffffffffffffffffffffffffffffffffffffffff163373ffffffffffffffffffffffffffffffffffffffff161415610204576040517f08c379a00000000000000000000000000000000000000000000000000000000081526004016101fb90611002565b60405180910390fd5b6000600860003373ffffffffffffffffffffffffffffffffffffffff1673ffffffffffffffffffffffffffffffffffffffff1681526020019081526020016000205411610286576040517f08c379a000000000000000000000000000000000000000000000000000000000815260040161027d90611094565b60405180910390fd5b60011515610292610479565b1515146102d4576040517f08c379a00000000000000000000000000000000000000000000000000000000081526004016102cb90611172565b60405180910390fd5b600260048111156102e8576102e7610dfa565b5b600260149054906101000a900460ff16600481111561030a57610309610dfa565b5b1461034a576040517f08c379a000000000000000000000000000000000000000000000000000000000815260040161034190611172565b60405180910390fd5b6000600860003373ffffffffffffffffffffffffffffffffffffffff1673ffffffffffffffffffffffffffffffffffffffff1681526020019081526020016000205490506000600860003373ffffffffffffffffffffffffffffffffffffffff1673ffffffffffffffffffffffffffffffffffffffff1681526020019081526020016000208190555060003373ffffffffffffffffffffffffffffffffffffffff166108fc839081150290604051600060405180830381858888f193505050509050801561043057816004600082825461042491906111c1565b92505081905550610475565b81600860003373ffffffffffffffffffffffffffffffffffffffff1673ffffffffffffffffffffffffffffffffffffffff168152602001908152602001600020819055505b5050565b600080600354600454101590506000600554421015905081156104d4576001600260146101000a81548160ff021916908360048111156104bc576104bb610dfa565b5b02179055506104c9610c87565b600192505050610564565b80156105175760028060146101000a81548160ff021916908360048111156104ff576104fe610dfa565b5b021790555061050c610c87565b600192505050610564565b60048081111561052a57610529610dfa565b5b600260149054906101000a900460ff16600481111561054c5761054b610dfa565b5b141561055d57600192505050610564565b6000925050505b90565b60006001600481111561057d5761057c610dfa565b5b600260149054906101000a900460ff16600481111561059f5761059e610dfa565b5b14806105de5750600260048111156105ba576105b9610dfa565b5b600260149054906101000a900460ff1660048111156105dc576105db610dfa565b5b145b156105ed5760075490506105f3565b60045490505b90565b600260009054906101000a900473ffffffffffffffffffffffffffffffffffffffff1673ffffffffffffffffffffffffffffffffffffffff163373ffffffffffffffffffffffffffffffffffffffff161415610687576040517f08c379a000000000000000000000000000000000000000000000000000000000815260040161067e90611267565b60405180910390fd5b6000600481111561069b5761069a610dfa565b5b600260149054906101000a900460ff1660048111156106bd576106bc610dfa565b5b146106fd576040517f08c379a00000000000000000000000000000000000000000000000000000000081526004016106f490611345565b60405180910390fd5b60011515610709610479565b1515141561074c576040517f08c379a000000000000000000000000000000000000000000000000000000000815260040161074390611345565b60405180910390fd5b34600860003373ffffffffffffffffffffffffffffffffffffffff1673ffffffffffffffffffffffffffffffffffffffff1681526020019081526020016000208190555034600460008282546107a29190611365565b925050819055507f8e7c251f73c76f1a7ee3319cdf5839f7da1e93dfb00b4bd515828b74654d019033346004546040516107de939291906113bb565b60405180910390a16107ee610479565b50565b600260009054906101000a900473ffffffffffffffffffffffffffffffffffffffff1673ffffffffffffffffffffffffffffffffffffffff163373ffffffffffffffffffffffffffffffffffffffff1614610881576040517f08c379a0000000000000000000000000000000000000000000000000000000008152600401610878906114b0565b60405180910390fd5b6001151561088d610479565b1515146108cf576040517f08c379a00000000000000000000000000000000000000000000000000000000081526004016108c69061158e565b60405180910390fd5b6004808111156108e2576108e1610dfa565b5b600260149054906101000a900460ff16600481111561090457610903610dfa565b5b1415610945576040517f08c379a000000000000000000000000000000000000000000000000000000000815260040161093c90611620565b60405180910390fd5b6001600481111561095957610958610dfa565b5b600260149054906101000a900460ff16600481111561097b5761097a610dfa565b5b146109bb576040517f08c379a00000000000000000000000000000000000000000000000000000000081526004016109b29061158e565b60405180910390fd5b6000600454905060006004819055506000600260009054906101000a900473ffffffffffffffffffffffffffffffffffffffff1673ffffffffffffffffffffffffffffffffffffffff166108fc839081150290604051600060405180830381858888f1935050505090508015610ab6576004600260146101000a81548160ff02191690836004811115610a5157610a50610dfa565b5b02179055507fc44ce8b565d4f044ad556926661492b53a79704b9b2e999bc733e2490d2e563e600260009054906101000a900473ffffffffffffffffffffffffffffffffffffffff1683604051610aa992919061169f565b60405180910390a1610ae9565b816004819055506001600260146101000a81548160ff02191690836004811115610ae357610ae2610dfa565b5b02179055505b5050565b6060806000806000806000806000808054610b07906116f7565b80601f0160208091040260200160405190810160405280929190818152602001828054610b33906116f7565b8015610b805780601f10610b5557610100808354040283529160200191610b80565b820191906000526020600020905b815481529060010190602001808311610b6357829003601f168201915b5050505050985060018054610b94906116f7565b80601f0160208091040260200160405190810160405280929190818152602001828054610bc0906116f7565b8015610c0d5780601f10610be257610100808354040283529160200191610c0d565b820191906000526020600020905b815481529060010190602001808311610bf057829003601f168201915b50505050509750600260009054906101000a900473ffffffffffffffffffffffffffffffffffffffff169650600260149054906101000a900460ff16955060035494506004549350600554925060065491506007549050909192939495969798565b60086020528060005260406000206000915090505481565b60006006541415610cb4576005544211610cb35742600681905550426006819055506004546007819055505b5b565b60008115159050919050565b610ccb81610cb6565b82525050565b6000602082019050610ce66000830184610cc2565b92915050565b6000819050919050565b610cff81610cec565b82525050565b6000602082019050610d1a6000830184610cf6565b92915050565b600081519050919050565b600082825260208201905092915050565b60005b83811015610d5a578082015181840152602081019050610d3f565b83811115610d69576000848401525b50505050565b6000601f19601f8301169050919050565b6000610d8b82610d20565b610d958185610d2b565b9350610da5818560208601610d3c565b610dae81610d6f565b840191505092915050565b600073ffffffffffffffffffffffffffffffffffffffff82169050919050565b6000610de482610db9565b9050919050565b610df481610dd9565b82525050565b7f4e487b7100000000000000000000000000000000000000000000000000000000600052602160045260246000fd5b60058110610e3a57610e39610dfa565b5b50565b6000819050610e4b82610e29565b919050565b6000610e5b82610e3d565b9050919050565b610e6b81610e50565b82525050565b6000610120820190508181036000830152610e8c818c610d80565b90508181036020830152610ea0818b610d80565b9050610eaf604083018a610deb565b610ebc6060830189610e62565b610ec96080830188610cf6565b610ed660a0830187610cf6565b610ee360c0830186610cf6565b610ef060e0830185610cf6565b610efe610100830184610cf6565b9a9950505050505050505050565b600080fd5b610f1a81610dd9565b8114610f2557600080fd5b50565b600081359050610f3781610f11565b92915050565b600060208284031215610f5357610f52610f0c565b5b6000610f6184828501610f28565b91505092915050565b7f4f6e6c7920746865206261636b657273206f66207468652070726f6a6563742060008201527f63616e20726566756e642074686569722072616973656420616d6f756e74206960208201527f662074686520676f616c206861736e2774206265656e206d65742e0000000000604082015250565b6000610fec605b83610d2b565b9150610ff782610f6a565b606082019050919050565b6000602082019050818103600083015261101b81610fdf565b9050919050565b7f43616e277420726566756e6420616e7920616d6f756e7420617320796f75206860008201527f6176656e27742066756e646564207468652070726f6a6563742e000000000000602082015250565b600061107e603a83610d2b565b915061108982611022565b604082019050919050565b600060208201905081810360008301526110ad81611071565b9050919050565b7f5468652070726f6a656374206861736e277420657870697265642e20506c656160008201527f73652066756e64206f722077616974206c6f6e67657220616e6420636865636b60208201527f20666f722074686520656e64207573696e6720636865636b496650726f6a656360408201527f74456e6465642e00000000000000000000000000000000000000000000000000606082015250565b600061115c606783610d2b565b9150611167826110b4565b608082019050919050565b6000602082019050818103600083015261118b8161114f565b9050919050565b7f4e487b7100000000000000000000000000000000000000000000000000000000600052601160045260246000fd5b60006111cc82610cec565b91506111d783610cec565b9250828210156111ea576111e9611192565b5b828203905092915050565b7f5468652070726f6a6563742063726561746f722063616e206e6f742066756e6460008201527f207468652070726f6a6563742e00000000000000000000000000000000000000602082015250565b6000611251602d83610d2b565b915061125c826111f5565b604082019050919050565b6000602082019050818103600083015261128081611244565b9050919050565b7f5468652070726f6a656374206973206e6f742072616973696e6720636170697460008201527f616c20617420746865206d6f6d656e7420616e796d6f72652e2055736520636860208201527f65636b496650726f6a656374456e64656420746f20656e64207468652070726f60408201527f6a6563742e000000000000000000000000000000000000000000000000000000606082015250565b600061132f606583610d2b565b915061133a82611287565b608082019050919050565b6000602082019050818103600083015261135e81611322565b9050919050565b600061137082610cec565b915061137b83610cec565b9250827fffffffffffffffffffffffffffffffffffffffffffffffffffffffffffffffff038211156113b0576113af611192565b5b828201905092915050565b60006060820190506113d06000830186610deb565b6113dd6020830185610cf6565b6113ea6040830184610cf6565b949350505050565b7f4f6e6c79207468652063726561746f72206f66207468652070726f6a6563742060008201527f63616e20706179206f7574207468652072616973656420616d6f756e74206f6e60208201527f6365207468652066756e64696e6720676f616c20686173206265656e206d657460408201527f2e00000000000000000000000000000000000000000000000000000000000000606082015250565b600061149a606183610d2b565b91506114a5826113f2565b608082019050919050565b600060208201905081810360008301526114c98161148d565b9050919050565b7f54686520676f616c206861736e2774206265656e20726169736564207965742e60008201527f20506c656173652077616974206c6f6e67657220616e6420636865636b20666f60208201527f722074686520656e64207573696e6720636865636b496650726f6a656374456e60408201527f6465642e00000000000000000000000000000000000000000000000000000000606082015250565b6000611578606483610d2b565b9150611583826114d0565b608082019050919050565b600060208201905081810360008301526115a78161156b565b9050919050565b7f54686520616d6f756e742077617320616c7265616479207061796564206f757460008201527f20746f20796f752e20436f6e67726174756c6174696f6e732100000000000000602082015250565b600061160a603983610d2b565b9150611615826115ae565b604082019050919050565b60006020820190508181036000830152611639816115fd565b9050919050565b6000819050919050565b600061166561166061165b84610db9565b611640565b610db9565b9050919050565b60006116778261164a565b9050919050565b60006116898261166c565b9050919050565b6116998161167e565b82525050565b60006040820190506116b46000830185611690565b6116c16020830184610cf6565b9392505050565b7f4e487b7100000000000000000000000000000000000000000000000000000000600052602260045260246000fd5b6000600282049050600182168061170f57607f821691505b60208210811415611723576117226116c8565b5b5091905056fea26469706673582212207e18d50851b85c64a17c6b13ca18771350b98c22d194af7d1f61219cf71f6a4664736f6c634300080b0033",
  "immutableReferences": {},
  "source": "// SPDX-License-Identifier: UNLICENSED\r\n\r\npragma solidity ^0.8.11;\r\n\r\n\r\ncontract Crowdfunding {\r\n    Project[] private allProjects;\r\n\r\n\r\n    /**\r\n        description\r\n    */\r\n    event NewProjectStarted(\r\n        string title, \r\n        string descr,\r\n        address projectAddress,\r\n        address creator,\r\n        uint amountToRaise,\r\n        uint deadline\r\n    );\r\n\r\n    /** \r\n        description\r\n    */\r\n    function createNewProject(string calldata _title, string calldata _descr, uint _amountToRaise, uint _numberOfDaysUntilDeadline) external {\r\n        uint deadline = block.timestamp + (_numberOfDaysUntilDeadline * 1 days);\r\n\r\n        require(block.timestamp < deadline, \"Please choose a time in the future.\");\r\n        require(_amountToRaise > 0, \"Please set the amount to be raised over 0 wei.\");\r\n\r\n        Project project = new Project(_title, _descr, _amountToRaise, deadline, payable(msg.sender));\r\n        allProjects.push(project);\r\n\r\n        emit NewProjectStarted(\r\n            _title, \r\n            _descr,\r\n            address(project),\r\n            msg.sender, \r\n            _amountToRaise, \r\n            deadline);\r\n    }\r\n\r\n    /** \r\n        only necessary when visibility = private\r\n    */\r\n    function viewAllProjects() external view returns(Project[] memory) {\r\n        return allProjects;\r\n    }\r\n}\r\n\r\n\r\ncontract Project {\r\n    enum ProjectState { RAISING, RAISED, EXPIRED, REFUNDED, PAYOUT }\r\n    \r\n    string title;\r\n    string descr;\r\n    \r\n    address payable creator; // to pay out\r\n    \r\n    ProjectState state;\r\n    uint amountToRaise;\r\n    uint256 currentBalance;\r\n    uint deadline;\r\n\r\n    // for logging once project finished\r\n    uint completedAt;\r\n    uint256 completedBalance;\r\n\r\n    mapping (address => uint) public fundings;\r\n\r\n    /**\r\n        description\r\n    */\r\n    event NewFunding(address sender, uint amount, uint currentBalance);\r\n\r\n    /**\r\n    \r\n    */\r\n    event ProjectPayedOut(address creator, uint256 currentBalance);\r\n\r\n    constructor(string memory _title, string memory _descr, uint _amountToRaise, uint _deadline, address payable _creator) {\r\n        title = _title;\r\n        descr = _descr;\r\n        amountToRaise = _amountToRaise;\r\n        currentBalance = 0;\r\n        deadline = _deadline;\r\n        state = ProjectState.RAISING;\r\n        creator = _creator;\r\n    }\r\n\r\n\r\n    function fund() external payable {\r\n        require(msg.sender != creator, \"The project creator can not fund the project.\");\r\n        \r\n        // check if projectEnded. This check at the start prevents that another funding happens after the project goal or deadline is met\r\n        require(state == ProjectState.RAISING, \"The project is not raising capital at the moment anymore. Use checkIfProjectEnded to end the project.\");\r\n        // same as the one above, just in case. Require reverts everything so the end is not tracked\r\n        require(checkIfProjectEnded() != true, \"The project is not raising capital at the moment anymore. Use checkIfProjectEnded to end the project.\");\r\n\r\n        // fund\r\n        fundings[msg.sender] = msg.value;\r\n\r\n        currentBalance += msg.value;\r\n\r\n        emit NewFunding(msg.sender, msg.value, currentBalance);\r\n\r\n        checkIfProjectEnded();\r\n    }\r\n\r\n    function payOut() external {\r\n       \trequire(msg.sender == creator, \"Only the creator of the project can pay out the raised amount once the funding goal has been met.\");\r\n\r\n        // check if projectEnded, already payed out or not in State RAISED\r\n        require(checkIfProjectEnded() == true, \"The goal hasn't been raised yet. Please wait longer and check for the end using checkIfProjectEnded.\");\r\n        require(state != ProjectState.PAYOUT, \"The amount was already payed out to you. Congratulations!\");\r\n        require(state == ProjectState.RAISED, \"The goal hasn't been raised yet. Please wait longer and check for the end using checkIfProjectEnded.\");      \r\n\r\n        uint256 _currentBalance = currentBalance;\r\n        currentBalance = 0;\r\n\r\n        bool transactionSuccessful = creator.send(_currentBalance);\r\n\r\n        if (transactionSuccessful) {\r\n            state = ProjectState.PAYOUT;\r\n            emit ProjectPayedOut(creator, _currentBalance);\r\n        } else {\r\n            // revert\r\n            currentBalance = _currentBalance;\r\n            state = ProjectState.RAISED;\r\n        }\r\n    }\r\n\r\n    function refund() external {        \r\n        // shouldn't be possible anyway as the creator can not fund the project in the first place, but should revert with a good error message\r\n        require(msg.sender != creator, \"Only the backers of the project can refund their raised amount if the goal hasn't been met.\"); \r\n\r\n        // check if the method caller has even funded the project\r\n        require(fundings[msg.sender] > 0, \"Can't refund any amount as you haven't funded the project.\");\r\n\r\n        // check if projectEnded and the deadline was passed\r\n        require(checkIfProjectEnded() == true, \"The project hasn't expired. Please fund or wait longer and check for the end using checkIfProjectEnded.\");\r\n        require(state == ProjectState.EXPIRED, \"The project hasn't expired. Please fund or wait longer and check for the end using checkIfProjectEnded.\");\r\n\r\n        uint _amountToRefund = fundings[msg.sender];\r\n        fundings[msg.sender] = 0;\r\n\r\n        bool transactionSuccessful = payable(msg.sender).send(_amountToRefund);\r\n\r\n        if (transactionSuccessful) {\r\n            currentBalance -= _amountToRefund;\r\n        } else {\r\n            // revert\r\n            fundings[msg.sender] = _amountToRefund;\r\n        }\r\n    }\r\n\r\n    function checkIfProjectEnded() public returns (bool) {\r\n        bool amountMet = currentBalance >= amountToRaise;\r\n        bool timeOver = block.timestamp >= deadline;\r\n        \r\n        if (amountMet) {\r\n            state = ProjectState.RAISED;\r\n\r\n            trackCompletion();\r\n\r\n            return true;\r\n        } else if (timeOver) {\r\n            state = ProjectState.EXPIRED;\r\n\r\n            trackCompletion();\r\n\r\n            return true;\r\n        } else if (state == ProjectState.PAYOUT) {\r\n            return true;\r\n        } else {\r\n            return false;\r\n        }   \r\n    }\r\n\r\n    function trackCompletion() internal {\r\n        // if the time hasn't been set before, then track it now else just leave the time which has been set already\r\n        // this prevents double entries if checkIfProjectEnded is called multiple times\r\n        if (completedAt == 0) {\r\n            // only track the times & amount if the project has been completed in time\r\n            if (block.timestamp <= deadline) {\r\n                completedAt = block.timestamp;\r\n                completedAt = block.timestamp;\r\n                completedBalance = currentBalance;\r\n            }\r\n        }\r\n    }\r\n\r\n    /**\r\n        get total contributions view\r\n    */\r\n    function viewTotalContributions() view public returns(uint256 _currentBalance) {\r\n        // if the project has been finished and has been payed out, the balance will be 0. \r\n        // in this case, return the logged balance\r\n        if (state == ProjectState.RAISED || state == ProjectState.EXPIRED) {\r\n            _currentBalance = completedBalance;\r\n        } else {\r\n            _currentBalance = currentBalance;\r\n        }\r\n    }\r\n\r\n\r\n    /**\r\n    \r\n    */\r\n    function viewProject() external view returns(\r\n        string memory _title,\r\n        string memory _descr,\r\n        address _creator,\r\n        ProjectState _state,\r\n        uint _amountToRaise,\r\n        uint256 _currentBalance,\r\n        uint _deadline,\r\n        uint _completedAt,\r\n        uint256 _completedBalance\r\n    ) {\r\n        _title = title;\r\n        _descr = descr;\r\n        _creator = creator;\r\n        _state = state;\r\n        _amountToRaise = amountToRaise;\r\n        _currentBalance = currentBalance;\r\n        _deadline = deadline;\r\n        _completedAt = completedAt;\r\n        _completedBalance = completedBalance;\r\n    }\r\n}\r\n",
  "sourcePath": "C:\\Users\\lucal\\OneDrive\\1 FH\\6. Semester\\Blockchain-Crowdfunding\\contracts\\Crowdfunding.sol",
  "compiler": {
    "name": "solc",
    "version": "0.8.11+commit.d7f03943.Emscripten.clang"
  },
  "schemaVersion": "3.4.4",
  "updatedAt": "2022-02-08T13:31:26.983Z",
  "devdoc": {
    "kind": "dev",
    "methods": {},
    "version": 1
  },
  "userdoc": {
    "events": {
      "NewFunding(address,uint256,uint256)": {
        "notice": "description"
      }
    },
    "kind": "user",
    "methods": {
      "viewTotalContributions()": {
        "notice": "get total contributions view"
      }
    },
    "version": 1
  }
}