{
  "contractName": "Project",
  "abi": [
    {
      "inputs": [
        {
          "internalType": "string",
          "name": "_title",
          "type": "string"
        },
        {
          "internalType": "string",
          "name": "_descr",
          "type": "string"
        },
        {
          "internalType": "uint256",
          "name": "_amountToRaise",
          "type": "uint256"
        },
        {
          "internalType": "uint256",
          "name": "_deadline",
          "type": "uint256"
        },
        {
          "internalType": "address payable",
          "name": "_creator",
          "type": "address"
        },
        {
          "internalType": "uint256",
          "name": "_startedAt",
          "type": "uint256"
        }
      ],
      "stateMutability": "nonpayable",
      "type": "constructor"
    },
    {
      "anonymous": false,
      "inputs": [
        {
          "indexed": false,
          "internalType": "address",
          "name": "sender",
          "type": "address"
        },
        {
          "indexed": false,
          "internalType": "uint256",
          "name": "amount",
          "type": "uint256"
        },
        {
          "indexed": false,
          "internalType": "uint256",
          "name": "currentBalance",
          "type": "uint256"
        }
      ],
      "name": "NewFunding",
      "type": "event"
    },
    {
      "anonymous": false,
      "inputs": [
        {
          "indexed": false,
          "internalType": "address",
          "name": "creator",
          "type": "address"
        },
        {
          "indexed": false,
          "internalType": "uint256",
          "name": "currentBalance",
          "type": "uint256"
        }
      ],
      "name": "ProjectPaidOut",
      "type": "event"
    },
    {
      "inputs": [
        {
          "internalType": "address",
          "name": "",
          "type": "address"
        }
      ],
      "name": "fundings",
      "outputs": [
        {
          "internalType": "uint256",
          "name": "",
          "type": "uint256"
        }
      ],
      "stateMutability": "view",
      "type": "function"
    },
    {
      "inputs": [],
      "name": "fund",
      "outputs": [],
      "stateMutability": "payable",
      "type": "function"
    },
    {
      "inputs": [],
      "name": "payOut",
      "outputs": [],
      "stateMutability": "nonpayable",
      "type": "function"
    },
    {
      "inputs": [],
      "name": "refund",
      "outputs": [],
      "stateMutability": "nonpayable",
      "type": "function"
    },
    {
      "inputs": [],
      "name": "checkIfProjectEnded",
      "outputs": [
        {
          "internalType": "bool",
          "name": "",
          "type": "bool"
        }
      ],
      "stateMutability": "nonpayable",
      "type": "function"
    },
    {
      "inputs": [],
      "name": "viewTotalContributions",
      "outputs": [
        {
          "internalType": "uint256",
          "name": "_currentBalance",
          "type": "uint256"
        }
      ],
      "stateMutability": "view",
      "type": "function"
    },
    {
      "inputs": [],
      "name": "viewProject",
      "outputs": [
        {
          "internalType": "string",
          "name": "_title",
          "type": "string"
        },
        {
          "internalType": "string",
          "name": "_descr",
          "type": "string"
        },
        {
          "internalType": "address",
          "name": "_creator",
          "type": "address"
        },
        {
          "internalType": "enum Project.ProjectState",
          "name": "_state",
          "type": "uint8"
        },
        {
          "internalType": "uint256",
          "name": "_amountToRaise",
          "type": "uint256"
        },
        {
          "internalType": "uint256",
          "name": "_currentBalance",
          "type": "uint256"
        },
        {
          "internalType": "uint256",
          "name": "_deadline",
          "type": "uint256"
        },
        {
          "internalType": "uint256",
          "name": "_startedAt",
          "type": "uint256"
        },
        {
          "internalType": "uint256",
          "name": "_completedAt",
          "type": "uint256"
        },
        {
          "internalType": "uint256",
          "name": "_completedBalance",
          "type": "uint256"
        }
      ],
      "stateMutability": "view",
      "type": "function"
    }
  ],
  "bytecode": "0x60806040523480156200001157600080fd5b5060405162001ce338038062001ce38339818101604052810190620000379190620003ee565b85600090805190602001906200004f92919062000101565b5084600190805190602001906200006892919062000101565b50836003819055506000600481905550826005819055506000600260146101000a81548160ff02191690836004811115620000a857620000a7620004c8565b5b021790555081600260006101000a81548173ffffffffffffffffffffffffffffffffffffffff021916908373ffffffffffffffffffffffffffffffffffffffff160217905550806006819055505050505050506200055c565b8280546200010f9062000526565b90600052602060002090601f0160209004810192826200013357600085556200017f565b82601f106200014e57805160ff19168380011785556200017f565b828001600101855582156200017f579182015b828111156200017e57825182559160200191906001019062000161565b5b5090506200018e919062000192565b5090565b5b80821115620001ad57600081600090555060010162000193565b5090565b6000604051905090565b600080fd5b600080fd5b600080fd5b600080fd5b6000601f19601f8301169050919050565b7f4e487b7100000000000000000000000000000000000000000000000000000000600052604160045260246000fd5b6200021a82620001cf565b810181811067ffffffffffffffff821117156200023c576200023b620001e0565b5b80604052505050565b600062000251620001b1565b90506200025f82826200020f565b919050565b600067ffffffffffffffff821115620002825762000281620001e0565b5b6200028d82620001cf565b9050602081019050919050565b60005b83811015620002ba5780820151818401526020810190506200029d565b83811115620002ca576000848401525b50505050565b6000620002e7620002e18462000264565b62000245565b905082815260208101848484011115620003065762000305620001ca565b5b620003138482856200029a565b509392505050565b600082601f830112620003335762000332620001c5565b5b815162000345848260208601620002d0565b91505092915050565b6000819050919050565b62000363816200034e565b81146200036f57600080fd5b50565b600081519050620003838162000358565b92915050565b600073ffffffffffffffffffffffffffffffffffffffff82169050919050565b6000620003b68262000389565b9050919050565b620003c881620003a9565b8114620003d457600080fd5b50565b600081519050620003e881620003bd565b92915050565b60008060008060008060c087890312156200040e576200040d620001bb565b5b600087015167ffffffffffffffff8111156200042f576200042e620001c0565b5b6200043d89828a016200031b565b965050602087015167ffffffffffffffff811115620004615762000460620001c0565b5b6200046f89828a016200031b565b95505060406200048289828a0162000372565b94505060606200049589828a0162000372565b9350506080620004a889828a01620003d7565b92505060a0620004bb89828a0162000372565b9150509295509295509295565b7f4e487b7100000000000000000000000000000000000000000000000000000000600052602160045260246000fd5b7f4e487b7100000000000000000000000000000000000000000000000000000000600052602260045260246000fd5b600060028204905060018216806200053f57607f821691505b60208210811415620005565762000555620004f7565b5b50919050565b611777806200056c6000396000f3fe6080604052600436106100705760003560e01c8063b60d42881161004e578063b60d4288146100e2578063c2052403146100ec578063ca3c23c114610103578063f00b03d21461013757610070565b8063590e1ae31461007557806389598eac1461008c578063aab8ca9c146100b7575b600080fd5b34801561008157600080fd5b5061008a610174565b005b34801561009857600080fd5b506100a161047a565b6040516100ae9190610cda565b60405180910390f35b3480156100c357600080fd5b506100cc610568565b6040516100d99190610d0e565b60405180910390f35b6100ea6105f7565b005b3480156100f857600080fd5b506101016107f2565b005b34801561010f57600080fd5b50610118610aee565b60405161012e9a99989796959493929190610e7a565b60405180910390f35b34801561014357600080fd5b5061015e60048036038101906101599190610f55565b610c78565b60405161016b9190610d0e565b60405180910390f35b600260009054906101000a900473ffffffffffffffffffffffffffffffffffffffff1673ffffffffffffffffffffffffffffffffffffffff163373ffffffffffffffffffffffffffffffffffffffff161415610205576040517f08c379a00000000000000000000000000000000000000000000000000000000081526004016101fc9061101a565b60405180910390fd5b6000600960003373ffffffffffffffffffffffffffffffffffffffff1673ffffffffffffffffffffffffffffffffffffffff1681526020019081526020016000205411610287576040517f08c379a000000000000000000000000000000000000000000000000000000000815260040161027e906110ac565b60405180910390fd5b6001151561029361047a565b1515146102d5576040517f08c379a00000000000000000000000000000000000000000000000000000000081526004016102cc9061118a565b60405180910390fd5b600260048111156102e9576102e8610e03565b5b600260149054906101000a900460ff16600481111561030b5761030a610e03565b5b1461034b576040517f08c379a00000000000000000000000000000000000000000000000000000000081526004016103429061118a565b60405180910390fd5b6000600960003373ffffffffffffffffffffffffffffffffffffffff1673ffffffffffffffffffffffffffffffffffffffff1681526020019081526020016000205490506000600960003373ffffffffffffffffffffffffffffffffffffffff1673ffffffffffffffffffffffffffffffffffffffff1681526020019081526020016000208190555060003373ffffffffffffffffffffffffffffffffffffffff166108fc839081150290604051600060405180830381858888f193505050509050801561043157816004600082825461042591906111d9565b92505081905550610476565b81600960003373ffffffffffffffffffffffffffffffffffffffff1673ffffffffffffffffffffffffffffffffffffffff168152602001908152602001600020819055505b5050565b600080600354600454101590506000600554421015905081156104d5576001600260146101000a81548160ff021916908360048111156104bd576104bc610e03565b5b02179055506104ca610c90565b600192505050610565565b80156105185760028060146101000a81548160ff02191690836004811115610500576104ff610e03565b5b021790555061050d610c90565b600192505050610565565b60048081111561052b5761052a610e03565b5b600260149054906101000a900460ff16600481111561054d5761054c610e03565b5b141561055e57600192505050610565565b6000925050505b90565b60006001600481111561057e5761057d610e03565b5b600260149054906101000a900460ff1660048111156105a05761059f610e03565b5b14806105df5750600260048111156105bb576105ba610e03565b5b600260149054906101000a900460ff1660048111156105dd576105dc610e03565b5b145b156105ee5760085490506105f4565b60045490505b90565b600260009054906101000a900473ffffffffffffffffffffffffffffffffffffffff1673ffffffffffffffffffffffffffffffffffffffff163373ffffffffffffffffffffffffffffffffffffffff161415610688576040517f08c379a000000000000000000000000000000000000000000000000000000000815260040161067f9061127f565b60405180910390fd5b6000600481111561069c5761069b610e03565b5b600260149054906101000a900460ff1660048111156106be576106bd610e03565b5b146106fe576040517f08c379a00000000000000000000000000000000000000000000000000000000081526004016106f59061135d565b60405180910390fd5b6001151561070a61047a565b1515141561074d576040517f08c379a00000000000000000000000000000000000000000000000000000000081526004016107449061135d565b60405180910390fd5b34600960003373ffffffffffffffffffffffffffffffffffffffff1673ffffffffffffffffffffffffffffffffffffffff1681526020019081526020016000208190555034600460008282546107a3919061137d565b925050819055507f8e7c251f73c76f1a7ee3319cdf5839f7da1e93dfb00b4bd515828b74654d019033346004546040516107df939291906113d3565b60405180910390a16107ef61047a565b50565b600260009054906101000a900473ffffffffffffffffffffffffffffffffffffffff1673ffffffffffffffffffffffffffffffffffffffff163373ffffffffffffffffffffffffffffffffffffffff1614610882576040517f08c379a0000000000000000000000000000000000000000000000000000000008152600401610879906114c8565b60405180910390fd5b6001151561088e61047a565b1515146108d0576040517f08c379a00000000000000000000000000000000000000000000000000000000081526004016108c7906115a6565b60405180910390fd5b6004808111156108e3576108e2610e03565b5b600260149054906101000a900460ff16600481111561090557610904610e03565b5b1415610946576040517f08c379a000000000000000000000000000000000000000000000000000000000815260040161093d90611638565b60405180910390fd5b6001600481111561095a57610959610e03565b5b600260149054906101000a900460ff16600481111561097c5761097b610e03565b5b146109bc576040517f08c379a00000000000000000000000000000000000000000000000000000000081526004016109b3906115a6565b60405180910390fd5b6000600454905060006004819055506000600260009054906101000a900473ffffffffffffffffffffffffffffffffffffffff1673ffffffffffffffffffffffffffffffffffffffff166108fc839081150290604051600060405180830381858888f1935050505090508015610ab7576004600260146101000a81548160ff02191690836004811115610a5257610a51610e03565b5b02179055507f440b61436a410d2226e507dcc049ba7523ca23ca56fc77bc0ec82b74bad48c38600260009054906101000a900473ffffffffffffffffffffffffffffffffffffffff1683604051610aaa9291906116b7565b60405180910390a1610aea565b816004819055506001600260146101000a81548160ff02191690836004811115610ae457610ae3610e03565b5b02179055505b5050565b60608060008060008060008060008060008054610b0a9061170f565b80601f0160208091040260200160405190810160405280929190818152602001828054610b369061170f565b8015610b835780601f10610b5857610100808354040283529160200191610b83565b820191906000526020600020905b815481529060010190602001808311610b6657829003601f168201915b5050505050995060018054610b979061170f565b80601f0160208091040260200160405190810160405280929190818152602001828054610bc39061170f565b8015610c105780601f10610be557610100808354040283529160200191610c10565b820191906000526020600020905b815481529060010190602001808311610bf357829003601f168201915b50505050509850600260009054906101000a900473ffffffffffffffffffffffffffffffffffffffff169750600260149054906101000a900460ff16965060035495506004549450600554935060065492506007549150600854905090919293949596979899565b60096020528060005260406000206000915090505481565b60006007541415610cbd576005544211610cbc5742600781905550426007819055506004546008819055505b5b565b60008115159050919050565b610cd481610cbf565b82525050565b6000602082019050610cef6000830184610ccb565b92915050565b6000819050919050565b610d0881610cf5565b82525050565b6000602082019050610d236000830184610cff565b92915050565b600081519050919050565b600082825260208201905092915050565b60005b83811015610d63578082015181840152602081019050610d48565b83811115610d72576000848401525b50505050565b6000601f19601f8301169050919050565b6000610d9482610d29565b610d9e8185610d34565b9350610dae818560208601610d45565b610db781610d78565b840191505092915050565b600073ffffffffffffffffffffffffffffffffffffffff82169050919050565b6000610ded82610dc2565b9050919050565b610dfd81610de2565b82525050565b7f4e487b7100000000000000000000000000000000000000000000000000000000600052602160045260246000fd5b60058110610e4357610e42610e03565b5b50565b6000819050610e5482610e32565b919050565b6000610e6482610e46565b9050919050565b610e7481610e59565b82525050565b6000610140820190508181036000830152610e95818d610d89565b90508181036020830152610ea9818c610d89565b9050610eb8604083018b610df4565b610ec5606083018a610e6b565b610ed26080830189610cff565b610edf60a0830188610cff565b610eec60c0830187610cff565b610ef960e0830186610cff565b610f07610100830185610cff565b610f15610120830184610cff565b9b9a5050505050505050505050565b600080fd5b610f3281610de2565b8114610f3d57600080fd5b50565b600081359050610f4f81610f29565b92915050565b600060208284031215610f6b57610f6a610f24565b5b6000610f7984828501610f40565b91505092915050565b7f4f6e6c7920746865206261636b657273206f66207468652070726f6a6563742060008201527f63616e20726566756e642074686569722072616973656420616d6f756e74206960208201527f662074686520676f616c206861736e2774206265656e206d65742e0000000000604082015250565b6000611004605b83610d34565b915061100f82610f82565b606082019050919050565b6000602082019050818103600083015261103381610ff7565b9050919050565b7f43616e277420726566756e6420616e7920616d6f756e7420617320796f75206860008201527f6176656e27742066756e646564207468652070726f6a6563742e000000000000602082015250565b6000611096603a83610d34565b91506110a18261103a565b604082019050919050565b600060208201905081810360008301526110c581611089565b9050919050565b7f5468652070726f6a656374206861736e277420657870697265642e20506c656160008201527f73652066756e64206f722077616974206c6f6e67657220616e6420636865636b60208201527f20666f722074686520656e64207573696e6720636865636b496650726f6a656360408201527f74456e6465642e00000000000000000000000000000000000000000000000000606082015250565b6000611174606783610d34565b915061117f826110cc565b608082019050919050565b600060208201905081810360008301526111a381611167565b9050919050565b7f4e487b7100000000000000000000000000000000000000000000000000000000600052601160045260246000fd5b60006111e482610cf5565b91506111ef83610cf5565b925082821015611202576112016111aa565b5b828203905092915050565b7f5468652070726f6a6563742063726561746f722063616e206e6f742066756e6460008201527f207468652070726f6a6563742e00000000000000000000000000000000000000602082015250565b6000611269602d83610d34565b91506112748261120d565b604082019050919050565b600060208201905081810360008301526112988161125c565b9050919050565b7f5468652070726f6a656374206973206e6f742072616973696e6720636170697460008201527f616c20617420746865206d6f6d656e7420616e796d6f72652e2055736520636860208201527f65636b496650726f6a656374456e64656420746f20656e64207468652070726f60408201527f6a6563742e000000000000000000000000000000000000000000000000000000606082015250565b6000611347606583610d34565b91506113528261129f565b608082019050919050565b600060208201905081810360008301526113768161133a565b9050919050565b600061138882610cf5565b915061139383610cf5565b9250827fffffffffffffffffffffffffffffffffffffffffffffffffffffffffffffffff038211156113c8576113c76111aa565b5b828201905092915050565b60006060820190506113e86000830186610df4565b6113f56020830185610cff565b6114026040830184610cff565b949350505050565b7f4f6e6c79207468652063726561746f72206f66207468652070726f6a6563742060008201527f63616e20706179206f7574207468652072616973656420616d6f756e74206f6e60208201527f6365207468652066756e64696e6720676f616c20686173206265656e206d657460408201527f2e00000000000000000000000000000000000000000000000000000000000000606082015250565b60006114b2606183610d34565b91506114bd8261140a565b608082019050919050565b600060208201905081810360008301526114e1816114a5565b9050919050565b7f54686520676f616c206861736e2774206265656e20726169736564207965742e60008201527f20506c656173652077616974206c6f6e67657220616e6420636865636b20666f60208201527f722074686520656e64207573696e6720636865636b496650726f6a656374456e60408201527f6465642e00000000000000000000000000000000000000000000000000000000606082015250565b6000611590606483610d34565b915061159b826114e8565b608082019050919050565b600060208201905081810360008301526115bf81611583565b9050919050565b7f54686520616d6f756e742077617320616c7265616479207061796564206f757460008201527f20746f20796f752e20436f6e67726174756c6174696f6e732100000000000000602082015250565b6000611622603983610d34565b915061162d826115c6565b604082019050919050565b6000602082019050818103600083015261165181611615565b9050919050565b6000819050919050565b600061167d61167861167384610dc2565b611658565b610dc2565b9050919050565b600061168f82611662565b9050919050565b60006116a182611684565b9050919050565b6116b181611696565b82525050565b60006040820190506116cc60008301856116a8565b6116d96020830184610cff565b9392505050565b7f4e487b7100000000000000000000000000000000000000000000000000000000600052602260045260246000fd5b6000600282049050600182168061172757607f821691505b6020821081141561173b5761173a6116e0565b5b5091905056fea2646970667358221220c4d8115b1fed3c84baea3ed326b41eae364c12fde63352305cc20eed80b711db64736f6c634300080b0033",
  "immutableReferences": {},
  "source": "// SPDX-License-Identifier: UNLICENSED\r\n\r\npragma solidity ^0.8.11;\r\n\r\n\r\ncontract Crowdfunding {\r\n    Project[] private allProjects;\r\n\r\n\r\n    /**\r\n        description\r\n    */\r\n    event NewProjectStarted(\r\n        string title, \r\n        string descr,\r\n        address projectAddress,\r\n        address creator,\r\n        uint amountToRaise,\r\n        uint deadline\r\n    );\r\n\r\n    /** \r\n        description\r\n    */\r\n    function createNewProject(string calldata _title, string calldata _descr, uint _amountToRaise, uint _numberOfDaysUntilDeadline) external {\r\n        uint deadline = block.timestamp + (_numberOfDaysUntilDeadline * 1 days);\r\n\r\n        require(block.timestamp < deadline, \"Please choose a time in the future.\");\r\n        require(_amountToRaise > 0, \"Please set the amount to be raised over 0 wei.\");\r\n\r\n        Project project = new Project(_title, _descr, _amountToRaise, deadline, payable(msg.sender), block.timestamp);\r\n        allProjects.push(project);\r\n\r\n        emit NewProjectStarted(\r\n            _title, \r\n            _descr,\r\n            address(project),\r\n            msg.sender, \r\n            _amountToRaise, \r\n            deadline);\r\n    }\r\n\r\n    /** \r\n        only necessary when visibility = private\r\n    */\r\n    function viewAllProjects() external view returns(Project[] memory) {\r\n        return allProjects;\r\n    }\r\n}\r\n\r\n\r\ncontract Project {\r\n    enum ProjectState { RAISING, RAISED, EXPIRED, REFUNDED, PAYOUT }\r\n    \r\n    string title;\r\n    string descr;\r\n    \r\n    address payable creator; // to pay out\r\n    \r\n    ProjectState state;\r\n    uint amountToRaise;\r\n    uint256 currentBalance;\r\n    uint deadline;\r\n    uint startedAt;\r\n\r\n    // for logging once project finished\r\n    uint completedAt;\r\n    uint256 completedBalance;\r\n\r\n    mapping (address => uint) public fundings;\r\n\r\n    /**\r\n        description\r\n    */\r\n    event NewFunding(address sender, uint amount, uint currentBalance);\r\n\r\n    /**\r\n    \r\n    */\r\n    event ProjectPaidOut(address creator, uint256 currentBalance);\r\n\r\n    constructor(string memory _title, string memory _descr, uint _amountToRaise, uint _deadline, address payable _creator, uint _startedAt) {\r\n        title = _title;\r\n        descr = _descr;\r\n        amountToRaise = _amountToRaise;\r\n        currentBalance = 0;\r\n        deadline = _deadline;\r\n        state = ProjectState.RAISING;\r\n        creator = _creator;\r\n        startedAt = _startedAt;\r\n    }\r\n\r\n\r\n    function fund() external payable {\r\n        require(msg.sender != creator, \"The project creator can not fund the project.\");\r\n        \r\n        // check if projectEnded. This check at the start prevents that another funding happens after the project goal or deadline is met\r\n        require(state == ProjectState.RAISING, \"The project is not raising capital at the moment anymore. Use checkIfProjectEnded to end the project.\");\r\n        // same as the one above, just in case. Require reverts everything so the end is not tracked\r\n        require(checkIfProjectEnded() != true, \"The project is not raising capital at the moment anymore. Use checkIfProjectEnded to end the project.\");\r\n\r\n        // fund\r\n        fundings[msg.sender] = msg.value;\r\n\r\n        currentBalance += msg.value;\r\n\r\n        emit NewFunding(msg.sender, msg.value, currentBalance);\r\n\r\n        checkIfProjectEnded();\r\n    }\r\n\r\n    function payOut() external {\r\n       \trequire(msg.sender == creator, \"Only the creator of the project can pay out the raised amount once the funding goal has been met.\");\r\n\r\n        // check if projectEnded, already payed out or not in State RAISED\r\n        require(checkIfProjectEnded() == true, \"The goal hasn't been raised yet. Please wait longer and check for the end using checkIfProjectEnded.\");\r\n        require(state != ProjectState.PAYOUT, \"The amount was already payed out to you. Congratulations!\");\r\n        require(state == ProjectState.RAISED, \"The goal hasn't been raised yet. Please wait longer and check for the end using checkIfProjectEnded.\");      \r\n\r\n        uint256 _currentBalance = currentBalance;\r\n        currentBalance = 0;\r\n\r\n        bool transactionSuccessful = creator.send(_currentBalance);\r\n\r\n        if (transactionSuccessful) {\r\n            state = ProjectState.PAYOUT;\r\n            emit ProjectPaidOut(creator, _currentBalance);\r\n        } else {\r\n            // revert\r\n            currentBalance = _currentBalance;\r\n            state = ProjectState.RAISED;\r\n        }\r\n    }\r\n\r\n    function refund() external {        \r\n        // shouldn't be possible anyway as the creator can not fund the project in the first place, but should revert with a good error message\r\n        require(msg.sender != creator, \"Only the backers of the project can refund their raised amount if the goal hasn't been met.\"); \r\n\r\n        // check if the method caller has even funded the project\r\n        require(fundings[msg.sender] > 0, \"Can't refund any amount as you haven't funded the project.\");\r\n\r\n        // check if projectEnded and the deadline was passed\r\n        require(checkIfProjectEnded() == true, \"The project hasn't expired. Please fund or wait longer and check for the end using checkIfProjectEnded.\");\r\n        require(state == ProjectState.EXPIRED, \"The project hasn't expired. Please fund or wait longer and check for the end using checkIfProjectEnded.\");\r\n\r\n        uint _amountToRefund = fundings[msg.sender];\r\n        fundings[msg.sender] = 0;\r\n\r\n        bool transactionSuccessful = payable(msg.sender).send(_amountToRefund);\r\n\r\n        if (transactionSuccessful) {\r\n            currentBalance -= _amountToRefund;\r\n        } else {\r\n            // revert\r\n            fundings[msg.sender] = _amountToRefund;\r\n        }\r\n    }\r\n\r\n    function checkIfProjectEnded() public returns (bool) {\r\n        bool amountMet = currentBalance >= amountToRaise;\r\n        bool timeOver = block.timestamp >= deadline;\r\n        \r\n        if (amountMet) {\r\n            state = ProjectState.RAISED;\r\n\r\n            trackCompletion();\r\n\r\n            return true;\r\n        } else if (timeOver) {\r\n            state = ProjectState.EXPIRED;\r\n\r\n            trackCompletion();\r\n\r\n            return true;\r\n        } else if (state == ProjectState.PAYOUT) {\r\n            return true;\r\n        } else {\r\n            return false;\r\n        }   \r\n    }\r\n\r\n    function trackCompletion() internal {\r\n        // if the time hasn't been set before, then track it now else just leave the time which has been set already\r\n        // this prevents double entries if checkIfProjectEnded is called multiple times\r\n        if (completedAt == 0) {\r\n            // only track the times & amount if the project has been completed in time\r\n            if (block.timestamp <= deadline) {\r\n                completedAt = block.timestamp;\r\n                completedAt = block.timestamp;\r\n                completedBalance = currentBalance;\r\n            }\r\n        }\r\n    }\r\n\r\n    /**\r\n        get total contributions view\r\n    */\r\n    function viewTotalContributions() view public returns(uint256 _currentBalance) {\r\n        // if the project has been finished and has been payed out, the balance will be 0. \r\n        // in this case, return the logged balance\r\n        if (state == ProjectState.RAISED || state == ProjectState.EXPIRED) {\r\n            _currentBalance = completedBalance;\r\n        } else {\r\n            _currentBalance = currentBalance;\r\n        }\r\n    }\r\n\r\n\r\n    /**\r\n    \r\n    */\r\n    function viewProject() external view returns(\r\n        string memory _title,\r\n        string memory _descr,\r\n        address _creator,\r\n        ProjectState _state,\r\n        uint _amountToRaise,\r\n        uint256 _currentBalance,\r\n        uint _deadline,\r\n        uint _startedAt,\r\n        uint _completedAt,\r\n        uint256 _completedBalance\r\n    ) {\r\n        _title = title;\r\n        _descr = descr;\r\n        _creator = creator;\r\n        _state = state;\r\n        _amountToRaise = amountToRaise;\r\n        _currentBalance = currentBalance;\r\n        _deadline = deadline;\r\n        _startedAt = startedAt;\r\n        _completedAt = completedAt;\r\n        _completedBalance = completedBalance;\r\n    }\r\n}\r\n",
  "sourcePath": "C:\\Users\\lucal\\OneDrive\\1 FH\\6. Semester\\Blockchain-Crowdfunding\\contracts\\Crowdfunding.sol",
  "compiler": {
    "name": "solc",
    "version": "0.8.11+commit.d7f03943.Emscripten.clang"
  },
  "schemaVersion": "3.4.4",
  "updatedAt": "2022-02-08T23:15:43.186Z",
  "devdoc": {
    "kind": "dev",
    "methods": {},
    "version": 1
  },
  "userdoc": {
    "events": {
      "NewFunding(address,uint256,uint256)": {
        "notice": "description"
      }
    },
    "kind": "user",
    "methods": {
      "viewTotalContributions()": {
        "notice": "get total contributions view"
      }
    },
    "version": 1
  }
}