{
  "contractName": "Project",
  "abi": [
    {
      "inputs": [
        {
          "internalType": "string",
          "name": "_title",
          "type": "string"
        },
        {
          "internalType": "string",
          "name": "_descr",
          "type": "string"
        },
        {
          "internalType": "uint256",
          "name": "_amountToRaise",
          "type": "uint256"
        },
        {
          "internalType": "uint256",
          "name": "_deadline",
          "type": "uint256"
        },
        {
          "internalType": "address payable",
          "name": "_creator",
          "type": "address"
        },
        {
          "internalType": "uint256",
          "name": "_startedAt",
          "type": "uint256"
        }
      ],
      "stateMutability": "nonpayable",
      "type": "constructor"
    },
    {
      "anonymous": false,
      "inputs": [
        {
          "indexed": false,
          "internalType": "address",
          "name": "sender",
          "type": "address"
        },
        {
          "indexed": false,
          "internalType": "uint256",
          "name": "amount",
          "type": "uint256"
        },
        {
          "indexed": false,
          "internalType": "uint256",
          "name": "currentBalance",
          "type": "uint256"
        }
      ],
      "name": "NewFunding",
      "type": "event"
    },
    {
      "anonymous": false,
      "inputs": [
        {
          "indexed": false,
          "internalType": "address",
          "name": "creator",
          "type": "address"
        },
        {
          "indexed": false,
          "internalType": "uint256",
          "name": "currentBalance",
          "type": "uint256"
        }
      ],
      "name": "ProjectPaidOut",
      "type": "event"
    },
    {
      "inputs": [
        {
          "internalType": "address",
          "name": "",
          "type": "address"
        }
      ],
      "name": "fundings",
      "outputs": [
        {
          "internalType": "uint256",
          "name": "",
          "type": "uint256"
        }
      ],
      "stateMutability": "view",
      "type": "function"
    },
    {
      "inputs": [],
      "name": "projectAddress",
      "outputs": [
        {
          "internalType": "address",
          "name": "",
          "type": "address"
        }
      ],
      "stateMutability": "view",
      "type": "function"
    },
    {
      "inputs": [],
      "name": "fund",
      "outputs": [],
      "stateMutability": "payable",
      "type": "function"
    },
    {
      "inputs": [],
      "name": "payOut",
      "outputs": [],
      "stateMutability": "nonpayable",
      "type": "function"
    },
    {
      "inputs": [],
      "name": "refund",
      "outputs": [],
      "stateMutability": "nonpayable",
      "type": "function"
    },
    {
      "inputs": [],
      "name": "checkIfProjectEnded",
      "outputs": [
        {
          "internalType": "bool",
          "name": "",
          "type": "bool"
        }
      ],
      "stateMutability": "nonpayable",
      "type": "function"
    },
    {
      "inputs": [],
      "name": "viewTotalContributions",
      "outputs": [
        {
          "internalType": "uint256",
          "name": "_currentBalance",
          "type": "uint256"
        }
      ],
      "stateMutability": "view",
      "type": "function"
    },
    {
      "inputs": [],
      "name": "viewProject",
      "outputs": [
        {
          "internalType": "string",
          "name": "_title",
          "type": "string"
        },
        {
          "internalType": "string",
          "name": "_descr",
          "type": "string"
        },
        {
          "internalType": "address",
          "name": "_creator",
          "type": "address"
        },
        {
          "internalType": "enum Project.ProjectState",
          "name": "_state",
          "type": "uint8"
        },
        {
          "internalType": "uint256",
          "name": "_amountToRaise",
          "type": "uint256"
        },
        {
          "internalType": "uint256",
          "name": "_currentBalance",
          "type": "uint256"
        },
        {
          "internalType": "uint256",
          "name": "_deadline",
          "type": "uint256"
        },
        {
          "internalType": "uint256",
          "name": "_startedAt",
          "type": "uint256"
        },
        {
          "internalType": "uint256",
          "name": "_completedAt",
          "type": "uint256"
        },
        {
          "internalType": "uint256",
          "name": "_completedBalance",
          "type": "uint256"
        },
        {
          "internalType": "address",
          "name": "_projectAddress",
          "type": "address"
        }
      ],
      "stateMutability": "view",
      "type": "function"
    }
  ],
  "bytecode": "0x60806040523480156200001157600080fd5b5060405162001de438038062001de483398181016040528101906200003791906200042f565b85600090805190602001906200004f92919062000142565b5084600190805190602001906200006892919062000142565b50836003819055506000600481905550826005819055506000600260146101000a81548160ff02191690836004811115620000a857620000a762000509565b5b021790555081600260006101000a81548173ffffffffffffffffffffffffffffffffffffffff021916908373ffffffffffffffffffffffffffffffffffffffff1602179055508060068190555030600760006101000a81548173ffffffffffffffffffffffffffffffffffffffff021916908373ffffffffffffffffffffffffffffffffffffffff1602179055505050505050506200059d565b828054620001509062000567565b90600052602060002090601f016020900481019282620001745760008555620001c0565b82601f106200018f57805160ff1916838001178555620001c0565b82800160010185558215620001c0579182015b82811115620001bf578251825591602001919060010190620001a2565b5b509050620001cf9190620001d3565b5090565b5b80821115620001ee576000816000905550600101620001d4565b5090565b6000604051905090565b600080fd5b600080fd5b600080fd5b600080fd5b6000601f19601f8301169050919050565b7f4e487b7100000000000000000000000000000000000000000000000000000000600052604160045260246000fd5b6200025b8262000210565b810181811067ffffffffffffffff821117156200027d576200027c62000221565b5b80604052505050565b600062000292620001f2565b9050620002a0828262000250565b919050565b600067ffffffffffffffff821115620002c357620002c262000221565b5b620002ce8262000210565b9050602081019050919050565b60005b83811015620002fb578082015181840152602081019050620002de565b838111156200030b576000848401525b50505050565b6000620003286200032284620002a5565b62000286565b9050828152602081018484840111156200034757620003466200020b565b5b62000354848285620002db565b509392505050565b600082601f83011262000374576200037362000206565b5b81516200038684826020860162000311565b91505092915050565b6000819050919050565b620003a4816200038f565b8114620003b057600080fd5b50565b600081519050620003c48162000399565b92915050565b600073ffffffffffffffffffffffffffffffffffffffff82169050919050565b6000620003f782620003ca565b9050919050565b6200040981620003ea565b81146200041557600080fd5b50565b6000815190506200042981620003fe565b92915050565b60008060008060008060c087890312156200044f576200044e620001fc565b5b600087015167ffffffffffffffff81111562000470576200046f62000201565b5b6200047e89828a016200035c565b965050602087015167ffffffffffffffff811115620004a257620004a162000201565b5b620004b089828a016200035c565b9550506040620004c389828a01620003b3565b9450506060620004d689828a01620003b3565b9350506080620004e989828a0162000418565b92505060a0620004fc89828a01620003b3565b9150509295509295509295565b7f4e487b7100000000000000000000000000000000000000000000000000000000600052602160045260246000fd5b7f4e487b7100000000000000000000000000000000000000000000000000000000600052602260045260246000fd5b600060028204905060018216806200058057607f821691505b6020821081141562000597576200059662000538565b5b50919050565b61183780620005ad6000396000f3fe60806040526004361061007b5760003560e01c8063b60d42881161004e578063b60d428814610118578063c205240314610122578063ca3c23c114610139578063f00b03d21461016e5761007b565b80633cf96af114610080578063590e1ae3146100ab57806389598eac146100c2578063aab8ca9c146100ed575b600080fd5b34801561008c57600080fd5b506100956101ab565b6040516100a29190610d96565b60405180910390f35b3480156100b757600080fd5b506100c06101d1565b005b3480156100ce57600080fd5b506100d76104d7565b6040516100e49190610dcc565b60405180910390f35b3480156100f957600080fd5b506101026105c5565b60405161010f9190610e00565b60405180910390f35b610120610654565b005b34801561012e57600080fd5b50610137610861565b005b34801561014557600080fd5b5061014e610b5d565b6040516101659b9a99989796959493929190610f2b565b60405180910390f35b34801561017a57600080fd5b5061019560048036038101906101909190611015565b610d0e565b6040516101a29190610e00565b60405180910390f35b600760009054906101000a900473ffffffffffffffffffffffffffffffffffffffff1681565b600260009054906101000a900473ffffffffffffffffffffffffffffffffffffffff1673ffffffffffffffffffffffffffffffffffffffff163373ffffffffffffffffffffffffffffffffffffffff161415610262576040517f08c379a0000000000000000000000000000000000000000000000000000000008152600401610259906110da565b60405180910390fd5b6000600a60003373ffffffffffffffffffffffffffffffffffffffff1673ffffffffffffffffffffffffffffffffffffffff16815260200190815260200160002054116102e4576040517f08c379a00000000000000000000000000000000000000000000000000000000081526004016102db9061116c565b60405180910390fd5b600115156102f06104d7565b151514610332576040517f08c379a00000000000000000000000000000000000000000000000000000000081526004016103299061124a565b60405180910390fd5b6002600481111561034657610345610eb4565b5b600260149054906101000a900460ff16600481111561036857610367610eb4565b5b146103a8576040517f08c379a000000000000000000000000000000000000000000000000000000000815260040161039f9061124a565b60405180910390fd5b6000600a60003373ffffffffffffffffffffffffffffffffffffffff1673ffffffffffffffffffffffffffffffffffffffff1681526020019081526020016000205490506000600a60003373ffffffffffffffffffffffffffffffffffffffff1673ffffffffffffffffffffffffffffffffffffffff1681526020019081526020016000208190555060003373ffffffffffffffffffffffffffffffffffffffff166108fc839081150290604051600060405180830381858888f193505050509050801561048e5781600460008282546104829190611299565b925050819055506104d3565b81600a60003373ffffffffffffffffffffffffffffffffffffffff1673ffffffffffffffffffffffffffffffffffffffff168152602001908152602001600020819055505b5050565b60008060035460045410159050600060055442101590508115610532576001600260146101000a81548160ff0219169083600481111561051a57610519610eb4565b5b0217905550610527610d26565b6001925050506105c2565b80156105755760028060146101000a81548160ff0219169083600481111561055d5761055c610eb4565b5b021790555061056a610d26565b6001925050506105c2565b60048081111561058857610587610eb4565b5b600260149054906101000a900460ff1660048111156105aa576105a9610eb4565b5b14156105bb576001925050506105c2565b6000925050505b90565b6000600160048111156105db576105da610eb4565b5b600260149054906101000a900460ff1660048111156105fd576105fc610eb4565b5b148061063c57506002600481111561061857610617610eb4565b5b600260149054906101000a900460ff16600481111561063a57610639610eb4565b5b145b1561064b576009549050610651565b60045490505b90565b600260009054906101000a900473ffffffffffffffffffffffffffffffffffffffff1673ffffffffffffffffffffffffffffffffffffffff163373ffffffffffffffffffffffffffffffffffffffff1614156106e5576040517f08c379a00000000000000000000000000000000000000000000000000000000081526004016106dc9061133f565b60405180910390fd5b600060048111156106f9576106f8610eb4565b5b600260149054906101000a900460ff16600481111561071b5761071a610eb4565b5b1461075b576040517f08c379a00000000000000000000000000000000000000000000000000000000081526004016107529061141d565b60405180910390fd5b600115156107676104d7565b151514156107aa576040517f08c379a00000000000000000000000000000000000000000000000000000000081526004016107a19061141d565b60405180910390fd5b34600a60003373ffffffffffffffffffffffffffffffffffffffff1673ffffffffffffffffffffffffffffffffffffffff16815260200190815260200160002060008282546107f9919061143d565b925050819055503460046000828254610812919061143d565b925050819055507f8e7c251f73c76f1a7ee3319cdf5839f7da1e93dfb00b4bd515828b74654d0190333460045460405161084e93929190611493565b60405180910390a161085e6104d7565b50565b600260009054906101000a900473ffffffffffffffffffffffffffffffffffffffff1673ffffffffffffffffffffffffffffffffffffffff163373ffffffffffffffffffffffffffffffffffffffff16146108f1576040517f08c379a00000000000000000000000000000000000000000000000000000000081526004016108e890611588565b60405180910390fd5b600115156108fd6104d7565b15151461093f576040517f08c379a000000000000000000000000000000000000000000000000000000000815260040161093690611666565b60405180910390fd5b60048081111561095257610951610eb4565b5b600260149054906101000a900460ff16600481111561097457610973610eb4565b5b14156109b5576040517f08c379a00000000000000000000000000000000000000000000000000000000081526004016109ac906116f8565b60405180910390fd5b600160048111156109c9576109c8610eb4565b5b600260149054906101000a900460ff1660048111156109eb576109ea610eb4565b5b14610a2b576040517f08c379a0000000000000000000000000000000000000000000000000000000008152600401610a2290611666565b60405180910390fd5b6000600454905060006004819055506000600260009054906101000a900473ffffffffffffffffffffffffffffffffffffffff1673ffffffffffffffffffffffffffffffffffffffff166108fc839081150290604051600060405180830381858888f1935050505090508015610b26576004600260146101000a81548160ff02191690836004811115610ac157610ac0610eb4565b5b02179055507f440b61436a410d2226e507dcc049ba7523ca23ca56fc77bc0ec82b74bad48c38600260009054906101000a900473ffffffffffffffffffffffffffffffffffffffff1683604051610b19929190611777565b60405180910390a1610b59565b816004819055506001600260146101000a81548160ff02191690836004811115610b5357610b52610eb4565b5b02179055505b5050565b6060806000806000806000806000806000808054610b7a906117cf565b80601f0160208091040260200160405190810160405280929190818152602001828054610ba6906117cf565b8015610bf35780601f10610bc857610100808354040283529160200191610bf3565b820191906000526020600020905b815481529060010190602001808311610bd657829003601f168201915b50505050509a5060018054610c07906117cf565b80601f0160208091040260200160405190810160405280929190818152602001828054610c33906117cf565b8015610c805780601f10610c5557610100808354040283529160200191610c80565b820191906000526020600020905b815481529060010190602001808311610c6357829003601f168201915b50505050509950600260009054906101000a900473ffffffffffffffffffffffffffffffffffffffff169850600260149054906101000a900460ff169750600354965060045495506005549450600654935060085492506009549150600760009054906101000a900473ffffffffffffffffffffffffffffffffffffffff169050909192939495969798999a565b600a6020528060005260406000206000915090505481565b60006008541415610d53576005544211610d525742600881905550426008819055506004546009819055505b5b565b600073ffffffffffffffffffffffffffffffffffffffff82169050919050565b6000610d8082610d55565b9050919050565b610d9081610d75565b82525050565b6000602082019050610dab6000830184610d87565b92915050565b60008115159050919050565b610dc681610db1565b82525050565b6000602082019050610de16000830184610dbd565b92915050565b6000819050919050565b610dfa81610de7565b82525050565b6000602082019050610e156000830184610df1565b92915050565b600081519050919050565b600082825260208201905092915050565b60005b83811015610e55578082015181840152602081019050610e3a565b83811115610e64576000848401525b50505050565b6000601f19601f8301169050919050565b6000610e8682610e1b565b610e908185610e26565b9350610ea0818560208601610e37565b610ea981610e6a565b840191505092915050565b7f4e487b7100000000000000000000000000000000000000000000000000000000600052602160045260246000fd5b60058110610ef457610ef3610eb4565b5b50565b6000819050610f0582610ee3565b919050565b6000610f1582610ef7565b9050919050565b610f2581610f0a565b82525050565b6000610160820190508181036000830152610f46818e610e7b565b90508181036020830152610f5a818d610e7b565b9050610f69604083018c610d87565b610f76606083018b610f1c565b610f83608083018a610df1565b610f9060a0830189610df1565b610f9d60c0830188610df1565b610faa60e0830187610df1565b610fb8610100830186610df1565b610fc6610120830185610df1565b610fd4610140830184610d87565b9c9b505050505050505050505050565b600080fd5b610ff281610d75565b8114610ffd57600080fd5b50565b60008135905061100f81610fe9565b92915050565b60006020828403121561102b5761102a610fe4565b5b600061103984828501611000565b91505092915050565b7f4f6e6c7920746865206261636b657273206f66207468652070726f6a6563742060008201527f63616e20726566756e642074686569722072616973656420616d6f756e74206960208201527f662074686520676f616c206861736e2774206265656e206d65742e0000000000604082015250565b60006110c4605b83610e26565b91506110cf82611042565b606082019050919050565b600060208201905081810360008301526110f3816110b7565b9050919050565b7f43616e277420726566756e6420616e7920616d6f756e7420617320796f75206860008201527f6176656e27742066756e646564207468652070726f6a6563742e000000000000602082015250565b6000611156603a83610e26565b9150611161826110fa565b604082019050919050565b6000602082019050818103600083015261118581611149565b9050919050565b7f5468652070726f6a656374206861736e277420657870697265642e20506c656160008201527f73652066756e64206f722077616974206c6f6e67657220616e6420636865636b60208201527f20666f722074686520656e64207573696e6720636865636b496650726f6a656360408201527f74456e6465642e00000000000000000000000000000000000000000000000000606082015250565b6000611234606783610e26565b915061123f8261118c565b608082019050919050565b6000602082019050818103600083015261126381611227565b9050919050565b7f4e487b7100000000000000000000000000000000000000000000000000000000600052601160045260246000fd5b60006112a482610de7565b91506112af83610de7565b9250828210156112c2576112c161126a565b5b828203905092915050565b7f5468652070726f6a6563742063726561746f722063616e206e6f742066756e6460008201527f207468652070726f6a6563742e00000000000000000000000000000000000000602082015250565b6000611329602d83610e26565b9150611334826112cd565b604082019050919050565b600060208201905081810360008301526113588161131c565b9050919050565b7f5468652070726f6a656374206973206e6f742072616973696e6720636170697460008201527f616c20617420746865206d6f6d656e7420616e796d6f72652e2055736520636860208201527f65636b496650726f6a656374456e64656420746f20656e64207468652070726f60408201527f6a6563742e000000000000000000000000000000000000000000000000000000606082015250565b6000611407606583610e26565b91506114128261135f565b608082019050919050565b60006020820190508181036000830152611436816113fa565b9050919050565b600061144882610de7565b915061145383610de7565b9250827fffffffffffffffffffffffffffffffffffffffffffffffffffffffffffffffff038211156114885761148761126a565b5b828201905092915050565b60006060820190506114a86000830186610d87565b6114b56020830185610df1565b6114c26040830184610df1565b949350505050565b7f4f6e6c79207468652063726561746f72206f66207468652070726f6a6563742060008201527f63616e20706179206f7574207468652072616973656420616d6f756e74206f6e60208201527f6365207468652066756e64696e6720676f616c20686173206265656e206d657460408201527f2e00000000000000000000000000000000000000000000000000000000000000606082015250565b6000611572606183610e26565b915061157d826114ca565b608082019050919050565b600060208201905081810360008301526115a181611565565b9050919050565b7f54686520676f616c206861736e2774206265656e20726169736564207965742e60008201527f20506c656173652077616974206c6f6e67657220616e6420636865636b20666f60208201527f722074686520656e64207573696e6720636865636b496650726f6a656374456e60408201527f6465642e00000000000000000000000000000000000000000000000000000000606082015250565b6000611650606483610e26565b915061165b826115a8565b608082019050919050565b6000602082019050818103600083015261167f81611643565b9050919050565b7f54686520616d6f756e742077617320616c7265616479207061796564206f757460008201527f20746f20796f752e20436f6e67726174756c6174696f6e732100000000000000602082015250565b60006116e2603983610e26565b91506116ed82611686565b604082019050919050565b60006020820190508181036000830152611711816116d5565b9050919050565b6000819050919050565b600061173d61173861173384610d55565b611718565b610d55565b9050919050565b600061174f82611722565b9050919050565b600061176182611744565b9050919050565b61177181611756565b82525050565b600060408201905061178c6000830185611768565b6117996020830184610df1565b9392505050565b7f4e487b7100000000000000000000000000000000000000000000000000000000600052602260045260246000fd5b600060028204905060018216806117e757607f821691505b602082108114156117fb576117fa6117a0565b5b5091905056fea26469706673582212207749d88fb71282963a434615886c2bb72a490c6c1cf53afb6083f93e60f8ee7e64736f6c634300080b0033",
  "immutableReferences": {},
  "source": "// SPDX-License-Identifier: UNLICENSED\r\n\r\npragma solidity ^0.8.11;\r\n\r\n\r\ncontract Crowdfunding {\r\n    Project[] private allProjects;\r\n\r\n\r\n    /**\r\n        description\r\n    */\r\n    event NewProjectStarted(\r\n        string title, \r\n        string descr,\r\n        address projectAddress,\r\n        address creator,\r\n        uint amountToRaise,\r\n        uint deadline\r\n    );\r\n\r\n    /** \r\n        description\r\n    */\r\n    function createNewProject(string calldata _title, string calldata _descr, uint _amountToRaise, uint _numberOfDaysUntilDeadline) external {\r\n        uint deadline = block.timestamp + (_numberOfDaysUntilDeadline * 1 days);\r\n\r\n        require(block.timestamp < deadline, \"Please choose a time in the future.\");\r\n        require(_amountToRaise > 0, \"Please set the amount to be raised over 0 wei.\");\r\n\r\n        Project project = new Project(_title, _descr, _amountToRaise, deadline, payable(msg.sender), block.timestamp);\r\n        allProjects.push(project);\r\n\r\n        emit NewProjectStarted(\r\n            _title, \r\n            _descr,\r\n            address(project),\r\n            msg.sender, \r\n            _amountToRaise, \r\n            deadline\r\n        );\r\n    }\r\n\r\n    /** \r\n        only necessary when visibility = private\r\n    */\r\n    function viewAllProjects() external view returns(Project[] memory) {\r\n        return allProjects;\r\n    }\r\n}\r\n\r\n\r\ncontract Project {\r\n    enum ProjectState { RAISING, RAISED, EXPIRED, REFUNDED, PAYOUT }\r\n    \r\n    string title;\r\n    string descr;\r\n    \r\n    address payable creator; // to pay out\r\n    \r\n    ProjectState state;\r\n    uint amountToRaise;\r\n    uint256 currentBalance;\r\n    uint deadline;\r\n    uint startedAt;\r\n\r\n    address public projectAddress;\r\n\r\n    // for logging once project finished\r\n    uint completedAt;\r\n    uint256 completedBalance;\r\n\r\n\r\n    mapping (address => uint) public fundings;\r\n\r\n    /**\r\n        description\r\n    */\r\n    event NewFunding(address sender, uint amount, uint currentBalance);\r\n\r\n    /**\r\n    \r\n    */\r\n    event ProjectPaidOut(address creator, uint256 currentBalance);\r\n\r\n    constructor(string memory _title, string memory _descr, uint _amountToRaise, uint _deadline, address payable _creator, uint _startedAt) {\r\n        title = _title;\r\n        descr = _descr;\r\n        amountToRaise = _amountToRaise;\r\n        currentBalance = 0;\r\n        deadline = _deadline;\r\n        state = ProjectState.RAISING;\r\n        creator = _creator;\r\n        startedAt = _startedAt;\r\n        projectAddress = address(this);\r\n    }\r\n\r\n\r\n    function fund() external payable {\r\n        require(msg.sender != creator, \"The project creator can not fund the project.\");\r\n        \r\n        // check if projectEnded. This check at the start prevents that another funding happens after the project goal or deadline is met\r\n        require(state == ProjectState.RAISING, \"The project is not raising capital at the moment anymore. Use checkIfProjectEnded to end the project.\");\r\n        // same as the one above, just in case. Require reverts everything so the end is not tracked\r\n        require(checkIfProjectEnded() != true, \"The project is not raising capital at the moment anymore. Use checkIfProjectEnded to end the project.\");\r\n\r\n        // fund\r\n        fundings[msg.sender] += msg.value;\r\n\r\n        currentBalance += msg.value;\r\n\r\n        emit NewFunding(msg.sender, msg.value, currentBalance);\r\n\r\n        checkIfProjectEnded();\r\n    }\r\n\r\n    function payOut() external {\r\n       \trequire(msg.sender == creator, \"Only the creator of the project can pay out the raised amount once the funding goal has been met.\");\r\n\r\n        // check if projectEnded, already payed out or not in State RAISED\r\n        require(checkIfProjectEnded() == true, \"The goal hasn't been raised yet. Please wait longer and check for the end using checkIfProjectEnded.\");\r\n        require(state != ProjectState.PAYOUT, \"The amount was already payed out to you. Congratulations!\");\r\n        require(state == ProjectState.RAISED, \"The goal hasn't been raised yet. Please wait longer and check for the end using checkIfProjectEnded.\");      \r\n\r\n        uint256 _currentBalance = currentBalance;\r\n        currentBalance = 0;\r\n\r\n        bool transactionSuccessful = creator.send(_currentBalance);\r\n\r\n        if (transactionSuccessful) {\r\n            state = ProjectState.PAYOUT;\r\n            emit ProjectPaidOut(creator, _currentBalance);\r\n        } else {\r\n            // revert\r\n            currentBalance = _currentBalance;\r\n            state = ProjectState.RAISED;\r\n        }\r\n    }\r\n\r\n    function refund() external {        \r\n        // shouldn't be possible anyway as the creator can not fund the project in the first place, but should revert with a good error message\r\n        require(msg.sender != creator, \"Only the backers of the project can refund their raised amount if the goal hasn't been met.\"); \r\n\r\n        // check if the method caller has even funded the project\r\n        require(fundings[msg.sender] > 0, \"Can't refund any amount as you haven't funded the project.\");\r\n\r\n        // check if projectEnded and the deadline was passed\r\n        require(checkIfProjectEnded() == true, \"The project hasn't expired. Please fund or wait longer and check for the end using checkIfProjectEnded.\");\r\n        require(state == ProjectState.EXPIRED, \"The project hasn't expired. Please fund or wait longer and check for the end using checkIfProjectEnded.\");\r\n\r\n        uint _amountToRefund = fundings[msg.sender];\r\n        fundings[msg.sender] = 0;\r\n\r\n        bool transactionSuccessful = payable(msg.sender).send(_amountToRefund);\r\n\r\n        if (transactionSuccessful) {\r\n            currentBalance -= _amountToRefund;\r\n        } else {\r\n            // revert\r\n            fundings[msg.sender] = _amountToRefund;\r\n        }\r\n    }\r\n\r\n    function checkIfProjectEnded() public returns (bool) {\r\n        bool amountMet = currentBalance >= amountToRaise;\r\n        bool timeOver = block.timestamp >= deadline;\r\n        \r\n        if (amountMet) {\r\n            state = ProjectState.RAISED;\r\n\r\n            trackCompletion();\r\n\r\n            return true;\r\n        } else if (timeOver) {\r\n            state = ProjectState.EXPIRED;\r\n\r\n            trackCompletion();\r\n\r\n            return true;\r\n        } else if (state == ProjectState.PAYOUT) {\r\n            return true;\r\n        } else {\r\n            return false;\r\n        }   \r\n    }\r\n\r\n    function trackCompletion() internal {\r\n        // if the time hasn't been set before, then track it now else just leave the time which has been set already\r\n        // this prevents double entries if checkIfProjectEnded is called multiple times\r\n        if (completedAt == 0) {\r\n            // only track the times & amount if the project has been completed in time\r\n            if (block.timestamp <= deadline) {\r\n                completedAt = block.timestamp;\r\n                completedAt = block.timestamp;\r\n                completedBalance = currentBalance;\r\n            }\r\n        }\r\n    }\r\n\r\n    /**\r\n        get total contributions view\r\n    */\r\n    function viewTotalContributions() view public returns(uint256 _currentBalance) {\r\n        // if the project has been finished and has been payed out, the balance will be 0. \r\n        // in this case, return the logged balance\r\n        if (state == ProjectState.RAISED || state == ProjectState.EXPIRED) {\r\n            _currentBalance = completedBalance;\r\n        } else {\r\n            _currentBalance = currentBalance;\r\n        }\r\n    }\r\n\r\n\r\n    /**\r\n    \r\n    */\r\n    function viewProject() external view returns(\r\n        string memory _title,\r\n        string memory _descr,\r\n        address _creator,\r\n        ProjectState _state,\r\n        uint _amountToRaise,\r\n        uint256 _currentBalance,\r\n        uint _deadline,\r\n        uint _startedAt,\r\n        uint _completedAt,\r\n        uint256 _completedBalance,\r\n        address _projectAddress\r\n    ) {\r\n        _title = title;\r\n        _descr = descr;\r\n        _creator = creator;\r\n        _state = state;\r\n        _amountToRaise = amountToRaise;\r\n        _currentBalance = currentBalance;\r\n        _deadline = deadline;\r\n        _startedAt = startedAt;\r\n        _completedAt = completedAt;\r\n        _completedBalance = completedBalance;\r\n        _projectAddress = projectAddress;\r\n    }\r\n}\r\n",
  "sourcePath": "C:\\Users\\lucal\\OneDrive\\1 FH\\6. Semester\\Blockchain-Crowdfunding\\contracts\\Crowdfunding.sol",
  "compiler": {
    "name": "solc",
    "version": "0.8.11+commit.d7f03943.Emscripten.clang"
  },
  "schemaVersion": "3.4.4",
  "updatedAt": "2022-02-09T01:52:04.010Z",
  "devdoc": {
    "kind": "dev",
    "methods": {},
    "version": 1
  },
  "userdoc": {
    "events": {
      "NewFunding(address,uint256,uint256)": {
        "notice": "description"
      }
    },
    "kind": "user",
    "methods": {
      "viewTotalContributions()": {
        "notice": "get total contributions view"
      }
    },
    "version": 1
  }
}